:100000000C94290A0C945A0A0C945A0A0C945A0A11
:100010000C945A0A0C945A0A0C945A0A0C945A0AD0
:100020000C945A0A0C945A0A0C945A0A0C945A0AC0
:100030000C945A0A0C945A0A0C945A0A0C945A0AB0
:100040000C945A0A0C945A0A0C945A0A0C945A0AA0
:100050000C945A0A0C945A0A0C945A0A0C94DE1BFB
:100060000C945A0A0C94AB1A0C94821A0C945A0AE7
:100070000C945A0A0C945A0A0C945A0A0C945A0A70
:100080000C945A0A0C945A0A0C945A0A0C945A0A60
:100090000C945A0A0C945A0A0C945A0A0C945A0A50
:1000A0000C945A0A0C945A0A0C945A0A0C945A0A40
:1000B0000C945A0A0C945A0A0C945A0A0C945A0A30
:1000C0000C945A0A0C945A0A0C945A0A0C945A0A20
:1000D0000C945A0A0C945A0A0C945A0A0C945A0A10
:1000E0000C945A0A101B131B021B061B0A1B4A1BEB
:1000F000171B1B1B211B251B291B2F1B331B371BEE
:100100004A1B3D1B411B451B3C2D2D2D4D656D6F25
:10011000727920667265653A207365747570200087
:100120004D41433A20007374617274696E672E2EDC
:100130002E2E7800005EBCE2613FDD83C29C7E20F3
:10014000A3FD1F419DC3217FFCA2401E5F01E3BDB3
:100150003E6082DC237D9FC1421CFEA0E1BF5D03A7
:1001600080DE3C62BEE0025CDF81633D7C22C09E9B
:100170001D43A1FF4618FAA427799BC584DA386687
:10018000E5BB5907DB856739BAE406581947A5FB73
:100190007826C49A653BD987045AB8E6A7F91B4567
:1001A000C6987A24F8A6441A99C7257B3A6486D85B
:1001B0005B05E7B98CD2306EEDB3510F4E10F2AC47
:1001C0002F7193CD114FADF3702ECC92D38D6F3133
:1001D000B2EC0E50AFF1134DCE90722C6D33D18F27
:1001E0000C52B0EE326C8ED0530DEFB1F0AE4C121B
:1001F00091CF2D73CA947628ABF517490856B4EA07
:100200006937D58B5709EBB536688AD495CB2977F2
:10021000F4AA4816E9B7550B88D6346A2B7597C9E6
:100220004A14F6A8742AC896154BA9F7B6E80A54DA
:10023000D7896B352D484947482054454D50455284
:100240004154555245002D4C4F572054454D504573
:10025000524154555245002D4C4F43414C2053457B
:100260004E534F52002D52454D4F54452053454E4D
:10027000534F52002D484947482054454D50455250
:100280004154555245002D4C4F572054454D504533
:1002900052415455524500464C4153482E2E2E2E65
:1002A0002E2E2E2E2E2E2E2E2000003C2F626F641E
:1002B000793E3C2F68746D6C3E003C2F7461626C1B
:1002C000653E3C696E70757420747970653D277366
:1002D00075626D6974272076616C75653D27736161
:1002E0007665272F3E3C2F666F726D3E0027207388
:1002F000697A653D273427206D61786C656E677477
:10030000683D2734273E203C2F74643E3C2F747296
:100310003E00272076616C75653D27003C74723E77
:100320003C74643E53657276657220706F72743CE3
:100330002F74643E3C74643E3C696E707574207426
:100340007970653D276E756D27206E616D653D275F
:10035000736572766572706F727400273E203C2F51
:1003600074643E3C2F74723E0027206D61786C658A
:100370006E6774683D2700272073697A653D270002
:100380003C74723E3C74643E536572766572206EB6
:10039000616D653C2F74643E3C74643E3C696E70D4
:1003A000757420747970653D276E756D27206E61B8
:1003B0006D653D277365727665726E616D65272088
:1003C00076616C75653D2700272073697A653D2746
:1003D0003427206D61786C656E6774683D2734271B
:1003E0003E203C2F74643E3C2F74723E00272076E2
:1003F000616C75653D27003C74723E3C74643E4CF4
:100400006F63616C20706F72743C2F74643E3C7437
:10041000643E3C696E70757420747970653D276E1A
:10042000756D27206E616D653D276C6F63616C7023
:100430006F727400272073697A653D273227206D1B
:1004400061786C656E6774683D2732273E203C2FCB
:1004500074643E3C2F74723E003C74723E3C746483
:100460003E49443C2F74643E3C74643E3C696E706B
:10047000757420747970653D276E756D27206E61E7
:100480006D653D276964272076616C75653D2700A1
:10049000203C2F74643E3C2F74723E0020002720C5
:1004A00073697A653D273327206D61786C656E67C7
:1004B00074683D2733273E00272076616C75653DC3
:1004C00027003C696E70757420747970653D2774DF
:1004D00065787427206E616D653D276970003C74F6
:1004E000723E3C74643E49503C2F74643E3C7464DC
:1004F0003E00203C2F74643E3C2F74723E00272047
:1005000073697A653D273227206D61786C656E6767
:1005100074683D2732273E00272076616C75653D63
:1005200027003C696E70757420747970653D27747E
:1005300065787427206E616D653D276D6163003CB1
:1005400074723E3C74643E4D616320416464726524
:1005500073733C2F74643E3C74643E003C2F7461A2
:10056000626C653E3C666F6E7420636F6C6F723DAB
:1005700027233533363639452720666163653D27A5
:1005800056657264616E61272073697A653D273212
:10059000273E3C623E496D706F7374617A696F6E7D
:1005A00069203C2F623E3C2F666F6E743E0D0A3C04
:1005B000666F726D20616374696F6E3D272F63688B
:1005C00073747427206D6574686F643D27504F53B2
:1005D00054273E3C7461626C652077696474683DA1
:1005E000273830252720626F726465723D273127D6
:1005F0003E3C636F6C67726F7570206267636F6CEF
:100600006F723D272342364334453927207769648A
:1006100074683D273230252720616C69676E3D275D
:100620006C656674273E3C2F636F6C67726F7570E4
:100630003E3C636F6C67726F7570206267636F6CAE
:100640006F723D2723464646464646272077696413
:1006500074683D273330252720616C69676E3D271C
:100660006C656674273E3C2F636F6C67726F7570A4
:100670003E003C74723E3C74643E574F4C3C2F74B9
:10068000643E3C74643E3C666F726D2061637469C5
:100690006F6E3D272F776F6C27206D6574686F64D0
:1006A0003D27504F5354273E3C696E70757420743B
:1006B0007970653D277375626D6974272076616C6A
:1006C00075653D2773656E64273E3C2F666F726DBE
:1006D0003E3C2F74643E3C74723E003C2F74643E7A
:1006E0003C2F74723E003C2F74643E3C74643E2D7B
:1006F0002D003C696E70757420747970653D2773A8
:1007000075626D6974272076616C75653D27737419
:10071000617274273E3C2F666F726D3E0053656EAA
:10072000736F723A3C696E70757420747970653DB0
:1007300027726164696F27206E616D653D2773655F
:100740006E736F72272076616C75653D27302720A8
:10075000636865636B65643E4C6F63616C3C696E96
:1007600070757420747970653D27726164696F27B4
:10077000206E616D653D2773656E736F72272076FD
:10078000616C75653D2731273E52656D6F74653C20
:1007900042523E005461726765743A3C696E7075EE
:1007A0007420747970653D276E756D6265722720BF
:1007B0006E616D653D27746172676574272076618F
:1007C0006C75653D2732322E302720737465703D7D
:1007D00027302E313027203E3C42523E003C696E8D
:1007E00070757420747970653D2768696464656EFE
:1007F00027206E616D653D276D616E75616C2720E8
:1008000076616C75653D2731273E00272073697A34
:10081000653D273527206D61786C656E6774683D8E
:100820002735273E3C42523E004D696E7574657314
:100830003A3C696E70757420747970653D276E75E9
:100840006D27206E616D653D276475726174696FF7
:100850006E272076616C75653D27004F46463C2F1C
:1008600074643E3C74643E3C666F726D20616374D8
:10087000696F6E3D272F72656C6527206D65746802
:100880006F643D27504F5354273E3C696E7075741A
:1008900020747970653D2768696464656E27206EF1
:1008A000616D653D27737461747573272076616C83
:1008B00075653D2731273E003C696E707574207464
:1008C0007970653D277375626D6974272076616C58
:1008D00075653D2773746F70273E3C2F666F726D90
:1008E0003E003C696E70757420747970653D2768B0
:1008F000696464656E27206E616D653D2773746160
:10090000747573272076616C75653D2730273E002E
:100910003C696E70757420747970653D27686964F0
:1009200064656E27206E616D653D276D616E756132
:100930006C272076616C75653D2731273E003C664B
:100940006F726D20616374696F6E3D272F72656CE5
:100950006527206D6574686F643D27504F53542799
:100960003E0053656E736F723A2052656D6F746509
:100970000053656E736F723A204C6F63616C003C7C
:1009800074723E3C74643E4D616E75616C20003C37
:100990002F74643E3C2F74723E006D616E75616C05
:1009A0002070726F6772616D003C2F74643E3C2F43
:1009B00074723E002052656D6F7465004C6F636108
:1009C0006C002053656E736F723A200074696D6518
:1009D00072616E6765200070726F6772616D2000D2
:1009E0003C74723E3C74643E70726F6772616D203D
:1009F0003C2F74643E3C74643E006F66663C2F740A
:100A0000643E3C2F74723E003C2F74643E3C2F7455
:100A1000723E006F6E202D20003C74723E3C746468
:100A20003E52656C65203C2F74643E3C74643E000D
:100A30003C2F74643E3C2F74723E003C696E7075AE
:100A40007420747970653D277375626D6974272011
:100A500076616C75653D27736574273E3C2F666F24
:100A6000726D3E003C696E70757420747970653DDE
:100A700027726164696F27206E616D653D2773740D
:100A800061747573272076616C75653D273027206A
:100A9000636865636B6564203E4F66663C696E7093
:100AA000757420747970653D27726164696F2720C1
:100AB0006E616D653D27737461747573272076616F
:100AC0006C75653D273127203E4F6E3C42523E00FB
:100AD0004F4E3C2F74643E3C74643E3C666F726DB6
:100AE00020616374696F6E3D272F706F7765722781
:100AF000206D6574686F643D27504F5354273E0046
:100B00003C696E70757420747970653D27726164FC
:100B1000696F27206E616D653D277374617475730D
:100B2000272076616C75653D273027203E4F66662D
:100B30003C696E70757420747970653D27726164CC
:100B4000696F27206E616D653D27737461747573DD
:100B5000272076616C75653D2731272063686563C2
:100B60006B65643E4F6E3C42523E004F46463C2F02
:100B700074643E3C74643E3C666F726D20616374C5
:100B8000696F6E3D272F706F77657227206D6574D2
:100B9000686F643D27504F5354273E003C74723EAB
:100BA0003C74643E506F77657220000A3C666F6E3D
:100BB0007420636F6C6F723D2723353336363945A9
:100BC0002720666163653D2756657264616E612703
:100BD0002073697A653D2732273E3C623E57656245
:100BE0006475696E6F3C2F623E3C2F666F6E743E7B
:100BF0000D0A3C7461626C652077696474683D27F6
:100C00003830252720626F726465723D2731273E98
:100C10003C636F6C67726F7570206267636F6C6F97
:100C2000723D27234236433445392720776964745F
:100C3000683D273230252720616C69676E3D276C3F
:100C4000656674273E3C2F636F6C67726F75703EEC
:100C50003C636F6C67726F7570206267636F6C6F57
:100C6000723D2723464646464646272077696474E8
:100C7000683D273330252720616C69676E3D276CFE
:100C8000656674273E3C2F636F6C67726F75703EAC
:100C900000485454502F312E3120323030204F4BE9
:100CA0000D0A436F6E74656E742D547970653A2029
:100CB000746578742F68746D6C0D0A0D0A3C2144BC
:100CC0004F43545950452068746D6C3E3C68746DB8
:100CD0006C3E3C686561643E3C7469746C653E576B
:100CE00065626475696E6F3C2F7469746C653E3C17
:100CF000626F64793E0D0A002D2D3E4D656D6F7259
:100D00007920667265653A2073686F776D61696EE8
:100D100020003C2D2D2D4D656D6F7279206672651A
:100D2000653A2073686F776D61696E20004854548E
:100D3000502F312E3120323030204F4B0D0A436F6F
:100D40006E74656E742D547970653A20746578748C
:100D50002F68746D6C0A0A3C68746D6C3E3C686563
:100D600061643E3C6D65746120485454502D45517A
:100D70005549563D27524546524553482720636FF3
:100D80006E74656E743D27303B2075726C3D2F6D1F
:100D900061696E273E3C7469746C653E54696D658B
:100DA000723C2F7469746C653E3C2F686561643ECB
:100DB0003C626F64793E3C2F626F64793E3C2F68E1
:100DC000746D6C3E00776F6C3A3A7072696E7400A5
:100DD0000A0A3C68746D6C3E3C686561643E3C6D1B
:100DE00065746120485454502D45515549563D274E
:100DF000524546524553482720636F6E74656E74A2
:100E00003D27303B2075726C3D2F6D61696E3F6DE3
:100E100073673D32273E3C7469746C653E574F4C96
:100E20003C2F7469746C653E3C2F686561643E3C80
:100E3000626F64793E3C2F626F64793E3C2F687428
:100E40006D6C3E00485454502F312E3120323030DA
:100E5000204F4B0D0A436F6E74656E742D5479707C
:100E6000653A20746578742F68746D6C003C2F624D
:100E70006F64793E3C2F68746D6C3E000A0A3C68D2
:100E8000746D6C3E3C686561643E3C6D65746120C8
:100E9000485454502D45515549563D2752454652C8
:100EA0004553482720636F6E74656E743D27303B51
:100EB0002075726C3D2F6D61696E3F6D73673D32B9
:100EC000273E3C7469746C653E72656C653C2F749A
:100ED00069746C653E3C2F686561643E3C626F647A
:100EE000793E00485454502F312E3120323030207A
:100EF0004F4B0D0A436F6E74656E742D5479706597
:100F00003A20746578742F68746D6C006E6F74206D
:100F10006D616E75616C0072656C65206F66660050
:100F200070726F6772616D2061637469766520729B
:100F3000656C65206F6666006D616E75616C206D15
:100F40006F64652C20696D706F73736962696C657D
:100F5000206665726D617265006D616E75616C20F1
:100F600073746F700072656C65206F6666006D61EA
:100F70006E75616C006E6F74206D616E75616C00D2
:100F800072656C65206F6E0063757272656E745366
:100F900074617475733D006A736F6E3D006D616EB0
:100FA00075616C3D0074696D6572616E67653D00C9
:100FB00070726F6772616D3D0072656D6F7465541C
:100FC000656D7065726174757265204D4953534942
:100FD0004E470072656D6F746554656D7065726122
:100FE000747572653D006C6173745F52656D6F74EA
:100FF0006553656E736F723D0073656E736F723DFE
:101000000074617267657454656D706572617475A2
:1010100072653D006475726174696F6E202A2036B6
:10102000303D006475726174696F6E3D0073746168
:101030007475733D0073686F7752656C6520003C72
:101040002F626F64793E3C2F68746D6C3E000A0A13
:101050003C68746D6C3E3C686561643E3C6D6574D3
:101060006120485454502D45515549563D2752450D
:1010700046524553482720636F6E74656E743D2752
:10108000323B2075726C3D2F6D61696E3F6D7367E9
:101090003D32273E3C7469746C653E574F4C3C2F83
:1010A0007469746C653E3C2F686561643E3C626F98
:1010B00064793E00485454502F312E312032303064
:1010C000204F4B0D0A436F6E74656E742D5479700A
:1010D000653A20746578742F68746D6C0073746160
:1010E0007475733D0073686F77506F776572200079
:1010F00073657452656D6F746554656D706572616A
:1011000074757265200053454E4420524553544136
:101110005254204E4F54494649434154494F4E2062
:101120000072656C65206F6E0072656C65206F667D
:10113000660070696E6720736572766572202E2E68
:101140002E2E0073656E6453746174757320003CB9
:101150002D2D2D4D656D6F727920667265653A2073
:10116000736574757020006765745374617475736A
:1011700020656E64007D002C2274696D6572616E5D
:101180006765223A002C2270726F6772616D223A95
:10119000002C22746172676574223A0066616C7378
:1011A000650074727565002C226C6F63616C7365E9
:1011B0006E736F72223A002C2272656D61696E69DE
:1011C0006E67223A002C226475726174696F6E2218
:1011D0003A0066616C73650074727565002C22724A
:1011E000656C65737461747573223A002C227265A4
:1011F0006D6F746574656D7065726174757265226A
:101200003A002C22617674656D7065726174757236
:1012100065223A002C2274656D7065726174757276
:1012200065223A007B226964223A00485454502FC8
:10123000312E3020323030204F4B0D0A436F6E7408
:10124000656E742D547970653A206170706C6963B5
:101250006174696F6E2F6A736F6E3B206368617291
:101260007365743D7574662D380D0A507261676D33
:10127000613A206E6F2D63616368650D0A0D0A0087
:101280002B2B2B3E4D656D6F727920667265653A2A
:101290002000676574537461747573207374617290
:1012A00074002D4E4F4E20434F4E4E4553534F2DFD
:1012B000006E6F7420666F756E6400726573756C76
:1012C000743D2000706F7374206E6F74696669637B
:1012D0006174696F6E0000002200250028002B0059
:1012E0002E003100340002010000050108010B014D
:1012F00000000A0B02090C0D0E0807030401000090
:1013000000000000000000000000000000000000DD
:10131000000000000000000000000000121110009A
:1013200000000000000000000000000000000000BD
:101330000000000000006D6178706F7364617420BC
:10134000746F206C6F6E6700676574506F737464A0
:101350006174610000002100240027002A002D0094
:101360003000330001010000040107010A01000000
:1013700020002300260029002C002F00320000014D
:101380000000030106010901050505050705080818
:101390000808020202020A0A0808040404040101FF
:1013A0000101010101010303030303030303040714
:1013B00007070C0C0C0C0C0C0C0C020202020606AB
:1013C0000606060606060B0B0B0B0B0B0B0B01029E
:1013D0001020200808102040102040800201020147
:1013E00008040201010204081020408080402010FF
:1013F0000804020180040201804020100804020158
:1014000008040201010204081020408001020408BF
:10141000102040804E414E494E495459494E46CDC8
:10142000CCCC3D0AD7233C17B7D13877CC2B32959B
:1014300095E6241FB14F0A000020410000C8420079
:10144000401C4620BCBE4CCA1B0E5AAEC59D740043
:10145000B53811241FBECFEFD1E2DEBFCDBF00E013
:101460000CBF18E0A0E0B2E0E6E4FBE800E00BBF50
:1014700002C007900D92A439B107D9F72BE0A4E977
:10148000B8E001C01D92AC38B207E1F71AE0C9E23A
:10149000DAE000E006C021970109802FFE010E94DA
:1014A0009E3AC832D10780E00807A9F70E94A82514
:1014B0000C94A1450C9400004F925F926F927F9222
:1014C0008F929F92AF92BF92DF92EF92FF920F9313
:1014D0001F93CF93DF93CDB7DEB7C853D1400FB67C
:1014E000F894DEBF0FBECDBF0E94281CE0911D0204
:1014F000F0911E02EE0FFF1FEB5CFD4F60817181CA
:1015000084E29AE00E943724E091DA08F0E0EE0FDE
:10151000FF1FEF5BFD4F6081718184E29AE00E94C2
:1015200037248091DA08811103C081E397E002C07B
:101530008CE297E08090CC089090CD08A090CE08E7
:10154000B090CF089F938F93E0911D02F0911E02FF
:10155000EE0FFF1FEB5CFD4F81818F9380818F9396
:1015600020E030E048EC52E4C501B4010E946B4435
:101570000E94A53BCB0164E670E00E948B3A9F93EA
:101580008F93C501B4010E94A53B7F936F93809117
:10159000A9081F928F9387E397E09F938F938E0103
:1015A0000F5F1F4F1F930F930E94ED3CB80184E221
:1015B0009AE00E94372461EA77E084E29AE00E9490
:1015C00073256AEA78E084E29AE00E943724E0908A
:1015D0000002F090010299E288E10FB6F894A89514
:1015E000809360000FBE9093600062E089E190E01C
:1015F0000E942E1E66E878E0CE018D5C9E4F0E9410
:10160000AD2166E878E0CE018D5C9E4F0E944F21AF
:10161000B801CE018D5C9E4F0E944F2164EC72E1B7
:1016200084E29AE00E9498256AEA78E084E29AE0EF
:101630000E943724C7010E9459236DEA77E084E2B3
:101640009AE00E943724B80184E29AE00E9437248D
:10165000A7016AEA78E084ED9AE00E9484170FB649
:10166000F894DEBF0FBECDBF892B09F4C7C060EC74
:1016700077E084E29AE00E9437246AEC77E084ED18
:101680009AE00E9473256DEA77E084ED9AE00E946B
:10169000732560ED77E084ED9AE00E9437246AEAD2
:1016A00078E084ED9AE00E94372461EE77E084EDE3
:1016B0009AE00E94372461E178E084ED9AE00E948C
:1016C000372463E278E084ED9AE00E947325C95CD8
:1016D000DE4F48815981C753D14060E070E02AE075
:1016E00084ED9AE00E94EC2384ED9AE00E94342479
:1016F00084ED9AE00E943424E091D40AF091D50A56
:10170000C95CDE4F48815981C753D140CD5CDE4F63
:1017100068817981C353D1400280F381E02D84ED4B
:101720009AE0199584ED9AE00E943424E12CF12C82
:10173000045D1E4F86E0D82E94E3A92E98E0B92EC2
:1017400026E0822E912C3DEB632E34E0732E84ED47
:101750009AE00E94F516882309F458C0F8012D2D4F
:1017600011922A95E9F7F801B182A08293828282D0
:1017700041E050E0B80184ED9AE00E94C121892B3C
:1017800029F5F8012D2D11922A95E9F7F8017182BA
:10179000608281E090E09383828341E050E0B80171
:1017A00084ED9AE00E94C121892BF9F484ED9AE03E
:1017B0000E94D2204B015C016BEB72E184E29AE063
:1017C0000E947425C4010E94592320C061EB72E17C
:1017D00084E29AE00E9498252701FFEF4F1A5F0AE2
:1017E00024E0E216F10414F011C0270164EF71E067
:1017F00080E090E00E949A1B7201A9CF62EA72E138
:1018000084E29AE00E94982510E005C084ED9AE0F9
:101810000E94ED1711E0CD5CDE4F88819981C353A2
:10182000D1400E944B40812FC85CDE4F0FB6F89428
:10183000DEBF0FBECDBFDF91CF911F910F91FF9003
:10184000EF90DF90BF90AF909F908F907F906F90C0
:101850005F904F9008950C9427458CBD9DBD0895D1
:101860002F923F924F925F926F927F928F929F92B0
:10187000AF92BF92CF92DF92EF92FF920F931F939E
:10188000CF93DF93CDB7DEB765970FB6F894DEBF81
:101890000FBECDBF7C016B013A01FB0120E080E06F
:1018A00090E06AE03191332309F140ED430F4A3073
:1018B00080F4689FA001699F500D1124CA01C09750
:1018C000830F911D37FD9A958F3F910559F350F382
:1018D00013C03E3289F4233079F0D301A20FB11D39
:1018E00012968C932F5F80E090E0DCCF233021F4C0
:1018F000F301858381E020C0F70142815381648137
:1019000075818091CB0A9091CC0AA091CD0AB091BB
:10191000CE0A481759076A077B0709F485C10E9458
:10192000D21B8701085F1F4F6F7077277C5FC8014C
:101930003BD7813019F080E090E0D2C181EF92E096
:101940009A838983F70182819381A481B5818B83F6
:101950009C83AD83BE8345E350E0BE016F5F7F4F44
:10196000C8010E946815892B19F4C12CD12C58C1CB
:101970000E94D21BF7017783668376276727762735
:101980007A83698342E050E0BE016F5F7F4FC801F8
:10199000C0D681E090E09E878D8742E050E0BE0196
:1019A000635F7F4FC801B5D680E091E09E878D8749
:1019B00042E050E0BE01635F7F4FC801AAD61E8699
:1019C0001D8642E050E0BE01635F7F4FC801A1D693
:1019D00042E050E0BE01635F7F4FC8019AD642E00B
:1019E00050E0BE01635F7F4FC80193D65601F501F9
:1019F0008081882301F1F6015F018191811113C07B
:101A000045018C189D081814190484F48F8641E050
:101A100050E0BE01615F7F4FC8017BD6A401B601D3
:101A2000C80177D603C08E3239F7EACF6501FFEFE0
:101A3000CF1ADF0ADCCF1F8641E050E0BE01615FB4
:101A40007F4FC80166D6C12CDD24D394DE86CD86B7
:101A500042E050E0BE01635F7F4FC8015AD6DE8688
:101A6000CD8642E050E0BE01635F7F4FC80151D692
:101A7000C8017DD7892B09F478CF63E0A62EB12C5D
:101A8000F2E06F0E711C0E94D21B1B012C01C801D9
:101A9000E7D518161906A4F00E94D21BDC01CB0171
:101AA00082199309A409B50989389341A105B105A3
:101AB000D0F462E370E080E090E00E949A1BE7CFF0
:101AC000F7014281538164817581808D918DA28D52
:101AD000B38D481759076A077B0741F4848D958DAC
:101AE000C59721F406C02FEF3FEF90C02EEF3FEFD8
:101AF0008DC0F70181A192A10C970CF49BC04CE022
:101B000050E0BE016F5F7F4FC80162D58B8190E0CE
:101B1000982F88272C81822B9A8B898B298130E002
:101B2000322F22274A81242BF70146815781421701
:101B3000530709F07CC097FF7AC08F709270892B91
:101B400009F0CBC0CF80D12CDC2CCC248885C82ACE
:101B5000C114D10409F4BEC0812C912C8D8190E078
:101B6000982F88272E81822B8816990608F465C045
:101B7000812C912C41E050E0BE016D5E7F4FC80189
:101B800027D58B89982F907C09F083C0811177C06D
:101B90008B898111EFCF42E050E0BE01615F7F4F42
:101BA000C80116D542E050E0BE01635F7F4FC80117
:101BB0000FD5C8012CD5C8012AD5C80128D5C80120
:101BC00026D542E050E0BE016F5E7F4FC80100D5D0
:101BD0008F8598898115914009F05FC02D853E85DC
:101BE0003227232732272130310509F056C0898951
:101BF0009A898115944009F06AC044E050E0B3012D
:101C0000C8012C8B3D8BE4D42C893D896901F1E01E
:101C1000AF1AB10829F02FEFC216D20609F433CF5C
:101C2000C801ADD5C6015CC08EEF9FEF59C02CEF47
:101C30003FEFECCF2DEF3FEFE9CF41E050E0BE01A9
:101C4000635F7F4FC801C4D48D8581110FC08D851E
:101C50008111F3CFC801DBD4C801D9D4C801D7D4CE
:101C6000C801D5D4FFEF8F1A9F0A78CF8D859FEFDB
:101C7000980F9D87882359F3C801C9D4F7CF8B8962
:101C80009FEF980F9B8B882309F482CFC801BFD4A4
:101C9000F6CFC801BCD41B8A7BCF412C512C89893B
:101CA0009A899827892798274816590630F4C80139
:101CB000AED48FEF481A580AF2CFEFEF8E1A9E0A71
:101CC0008C149D0409F056CF26EF3FEF9FCF27EFEE
:101CD0003FEF9CCF2AEF3FEF99CF2BEF3FEF96CF0F
:101CE00065960FB6F894DEBF0FBECDBFDF91CF91E2
:101CF0001F910F91FF90EF90DF90CF90BF90AF902A
:101D00009F908F907F906F905F904F903F902F901B
:101D100008950C941F4563E471E184E29AE00E9407
:101D20009825809194088111C7CB80E008954F9247
:101D30005F926F927F929F92AF92BF92CF92DF920B
:101D4000EF92FF920F931F93CF93DF93CDB7DEB740
:101D5000C35FD1090FB6F894DEBF0FBECDBF62E3FB
:101D600071E184E29AE00E94982504E010E0E0919D
:101D7000070BF091080B0190F081E02D64E27AE00E
:101D800087E09BE019956BE378E084E29AE00E949B
:101D900073250150110959F71E821D8218861F8272
:101DA00019861A861B861C868E01035F1F4F60E40E
:101DB000F62EF8012F2D11922A95E9F71A82198231
:101DC0001C821B8281EF92E062969FAF8EAF62977A
:101DD00066961CAE1DAE1EAE1FAE669760E170E04B
:101DE0008091D30A0E945D226FEF8091D30A95D52E
:101DF00043E060E070E08091D30A85D541E064E182
:101E000070E08091D30A7FD560E070E08091D30AC2
:101E10000E940D1F61E070E08091D30A0E945D2254
:101E200040E450E06AE170E080E299E00E94D63C34
:101E30008091D20A91E0980F9093D20A2091D10A12
:101E400030E0CA55DF4F39832883C65AD04090E02E
:101E5000C855DF4F99838883C85AD0400E94D21B4F
:101E6000C655DF4F688379838A839B83CA5AD040E3
:101E7000E0E2F9E0A2EAB0E0AC0FBD1F1C960190D1
:101E80000D92FA94E1F788E0CE55DF4F8883C25A6D
:101E9000D040CD55DF4F1882C35AD04020E038E003
:101EA000C855DF4F48815981C85AD040CA55DF4FC5
:101EB00088819981C65AD040480F591FC455DF4FB9
:101EC00068817981CC5AD040C655DF4F888199818D
:101ED000CA5AD040860F971FA0E0B0E0840F951F2C
:101EE000A11DB11D820F931FA11DB11D72EAE72E26
:101EF000F12CEC0EFD1EEDE0EE0EF11CAE01415199
:101F00005F4FB70161507109F7012081FB013081FA
:101F1000820F931FA11DB11DF2E0EF0EF11CE4161C
:101F2000F50679F7AD0166277727AA27BB27840F27
:101F3000951FA61FB71FAD0166277727840F951F32
:101F4000A61FB71F80959095CC55DF4F9983888346
:101F5000C45AD04044E0C42ED12C56E5A52EB12C55
:101F6000AC0EBD1E2CE0A20EB11C8091090BC2511B
:101F7000DF4F8883CE5ED04080910A0BC151DF4F86
:101F80008883CF5ED04080910B0BC051DF4F888398
:101F9000C05FD04080910C0BCF50DF4F8883C15F72
:101FA000D040BE0162517F4F8091D30A1CD54AE2D6
:101FB00066E170E08091D30AA6D460E070E0809181
:101FC000D30A02D5CE55DF4F8881C25AD0406796DA
:101FD0008FAF6797CD55DF4F8881C35AD040689641
:101FE0008FAF6897CC55DF4F88819981C45AD04014
:101FF0009827892798276A969FAF8EAF6A97CA5508
:10200000DF4F88819981C65AD04098278927982721
:102010006C969FAF8EAF6C97C855DF4F88819981C2
:10202000C85AD0409827892798276E969FAF8EAFC1
:102030006E97C655DF4F688179818A819B81CA5A24
:10204000D0400E94A63AA2966CAF7DAF8EAF9FAFF4
:10205000A29780E4E2EAF0E0EC0FFD1F3C96A6E5D3
:10206000B0E0AC0FBD1F1C9601900D928A95E1F770
:102070002CE430E0AE014A5A5F4F60E070E080919E
:10208000D30A0E94CB2260E270E08091D30A0E94C2
:102090005D2262E070E08091D30A43D484FD0EC0DB
:1020A00062E070E08091D30A3CD483FFF2CF68E114
:1020B0008091D30A32D481E090E006C060E1809143
:1020C000D30A2BD480E090E060969FAF8EAF6097EC
:1020D000892B09F0D8C00E94D21B2B013C0190E44F
:1020E000992E0E94D21BDC01CB0184199509A60907
:1020F000B709883E9340A105B10508F0BEC08091A4
:10210000D30A0E94B122892B61F38091D30A0E94E5
:102110008C1E7C01BC01772726E030E0AE014251E5
:102120005F4F8091D30A0E946D2286E0E80EC25173
:10213000DF4F8881CE5ED04063968FAF6397C151E9
:10214000DF4F8881CF5ED04064968FAF6497C051D7
:10215000DF4F8881C05FD04065968FAF6597CF50C5
:10216000DF4F8881C15FD04066968FAF6697CD50B4
:10217000DF4FF880C35FD040ECE4EF1510F48CE43F
:10218000F82E2F2D30E06E2D70E0AE014A5A5F4FD1
:102190008091D30A0E946D2267968FAD67978983DD
:1021A00068968FAD68978A836A968EAD9FAD6A9761
:1021B0009827892798279C838B836C968EAD9FAD3B
:1021C0006C979827892798279E838D836E968EAD6E
:1021D0009FAD6E9798278927982798878F83A29617
:1021E0006CAD7DAD8EAD9FADA2970E94A63A69877A
:1021F0007A878B879C87F501D801892D01900D92F4
:102200008A95E1F7FE0CE090D30A40E068E270E0C6
:102210008E2D79D34F2D69E270E08E2D74D360E45A
:1022200070E08091D30A0E945D228981811159CF8B
:102230002D813E81CA55DF4F88819981C65AD04091
:102240002817390709F04DCF2F813885C855DF4F42
:1022500088819981C85AD0402817390709F041CFA1
:1022600066E170E08091D30A5CD32E968FAF2E97F3
:1022700060961FAE1EAE609706C082E090E060964A
:102280009FAF8EAF609760968EAD9FAD6097892BA4
:1022900029F021E0C21AD10809F067CE60E170E0B0
:1022A0008091D30A0E945D226FEF8091D30A35D3CB
:1022B00060968EAD9FAD6097892B61F41092610995
:1022C000109260096DE378E084E29AE00E9437247E
:1022D00081E010C06AE478E084E29AE00E9437244A
:1022E00080916009909161090196909361098093B2
:1022F000600980E0CD50DF4F0FB6F894DEBF0FBE0F
:10230000CDBFDF91CF911F910F91FF90EF90DF90A4
:10231000CF90BF90AF909F907F906F905F904F90C5
:102320000895CF93DF931F921F92CDB7DEB7209110
:10233000860B3091870BCE0101962115310519F4DA
:102340008C589B4002C0821B930B9A83898389819E
:102350009A810F900F90DF91CF9108950F931F9363
:10236000CF93DF9369E980E090E075DA609117021E
:1023700081E090E070DA6091180282E090E06BDA20
:102380006091190283E090E066DA60911A0284E0BD
:1023900090E061DA60911B0285E090E05CDA609188
:1023A0001C0286E090E057DA6091060287E090E038
:1023B00052DACAEAD8E088E090E069918C010F5FB8
:1023C0001F4F49DAC80106321105B9F7C091000262
:1023D0006091010286E290E03EDA6C2F87E290E0A5
:1023E0003ADA6091020288E290E035DA6091030205
:1023F00089E290E030DA609104028AE290E02BDA20
:10240000609105028BE290E026DA6091A9088CE2E7
:1024100090E0DF91CF911F910F911DCACF92DF9273
:10242000EF92FF920F931F93CF93C82F8091DA08FA
:10243000882321F10E94281C0091990810919A0884
:1024400020919B0830919C08C0909508D0909608E8
:10245000E0909708F09098080C191D092E093F0983
:10246000DC01CB01800F911FA21FB31F809399083D
:1024700090939A08A0939B08B0939C088091DA08E7
:102480008093DB08CC23C1F061E271E184E29AE041
:102490000E94982561E082E00E94E11A81E0809329
:1024A000DA080E94281C6093950870939608809320
:1024B0009708909398080CC069E271E184E29AE071
:1024C0000E94982560E082E00E94E11A1092DA08EA
:1024D000CF911F910F91FF90EF90DF90CF900895D3
:1024E0000895CF93DF931F92CDB7DEB76983DC01E8
:1024F000ED91FC910280F381E02D41E050E0BE01BE
:102500006F5F7F4F19950F90DF91CF910895FC0178
:10251000818D928D0895FC0184899589089521EF1C
:1025200032E0FC0131832083FB01408951896289BB
:102530007389FC0142835383648375830895DC01AE
:10254000ED91FC91008CF18DE02D1994CF93DF93E8
:102550001F92CDB7DEB76983DC01ED91FC9102805B
:10256000F381E02D41E050E0BE016F5F7F4F199590
:102570000F90DF91CF910895FC019485FB01848534
:10258000981303C081E0943009F480E0089521E0BD
:10259000FC018485843009F420E0822F0895CF93D4
:1025A000DF931F92CDB7DEB7FC01218D328D232B37
:1025B00049F0BE016F5F7F4F808D0E94F51E8981BB
:1025C00090E002C08FEF9FEF0F90DF91CF910895C1
:1025D000CF93DF93FC01218D328D2115310519F444
:1025E0008FEF9FEF11C0EC014217530708F0A901CC
:1025F000888D0E94A41E1816190694F7298D3A8D0D
:10260000281B390B3A8F298FDF91CF9108950F93B3
:102610001F93CF93DF931F92CDB7DEB7FC01218DBF
:10262000328D232B61F08C0141E050E0BE016F5FE1
:102630007F4F808D0E94A41E181619061CF08FEF84
:102640009FEF08C0F801818D928D0197928F818F45
:10265000898190E00F90DF91CF911F910F910895A4
:102660000F931F93CF93DF93CDB7DEB728970FB6A5
:10267000F894DEBF0FBECDBF8C01F801818D928D25
:10268000892B49F0D801ED91FC910680F781E02D6E
:10269000C8011995F2CF808D0E944B1E181619069D
:1026A0005CF548E050E0BE016F5F7F4FD80158965F
:1026B0008C910E94A41E9C0118161906DCF48981D5
:1026C0009A81AB81BC81F801808B918BA28BB38BFB
:1026D0008D8190E0982F88272E81820F911D958BF8
:1026E000848B2F8130E0322F22278885280F311DDF
:1026F000328F218FC90102C080E090E028960FB68A
:10270000F894DEBF0FBECDBFDF91CF911F910F9127
:102710000895AF92BF92CF92DF92FF920F931F93D3
:10272000CF93DF938C015B01EA01FC01C688D78857
:10273000F08C80E590E091D88F2D0E942E238C178D
:102740009D0720F48F2D0E942E23EC019E01A501F0
:10275000B6018F2D0E94CB223FD4F801868997893C
:102760008C0F9D1F978B868BCE01DF91CF911F9190
:102770000F91FF90DF90CF90BF90AF900895CF93CF
:10278000DF93EC01888D843061F00E94641EE88D37
:10279000F0E0EE0FFF1FE356F74F1182108284E046
:1027A000888FDF91CF910895EF92FF921F93CF937F
:1027B000DF93FC01208D243011F080E01CC07B01F0
:1027C000EC0110E0812F0E94741E811102C0188F4D
:1027D00005C08831E1F31F5F1430A1F7888D843084
:1027E00061F3FD86EC861A8E198E20E0A70162E067
:1027F0000E941E1F81E0DF91CF911F91FF90EF900B
:102800000895FC011382128288EE93E0A0E0B0E00C
:1028100084839583A683B7838FE492E0918380833A
:1028200081EF92E097878687108A118A128A138A2D
:1028300084E0808F0895CF92DF92EF92FF920F9302
:102840001F93CF93DF93CDB7DEB7E1970FB6F89420
:10285000DEBF0FBECDBF7C016A0101EF12E01A831B
:1028600009831B821C821D821E82CE01099668ABE1
:1028700079ABC7DF1DA30CA31EA21FA218A619A621
:102880008091C30A9091C40AA091C50AB091C60A6A
:102890008CA79DA7AEA7BFA78B839C83AD83BE8368
:1028A00018861F82AE014C5D5F4F68A979A9CE01E1
:1028B00001960E94300C81309105B1F4D701ED9161
:1028C000FC910088F189E02D1BA70AA78EA19FA18A
:1028D000A8A5B9A58CA79DA7AEA7BFA7A601BE01B5
:1028E000665D7F4FC7011995E1960FB6F894DEBF7C
:1028F0000FBECDBFDF91CF911F910F91FF90EF9051
:10290000DF90CF9008959B0190E00496982F882740
:10291000642F820F931F0C942E1E462F62E070E0EE
:10292000F2CF0F931F93CF93DF931F92CDB7DEB7F4
:1029300090E00496982F88278C01060F171F0E949D
:10294000A21D8FE00E94D41D812F0E94D41D802FD4
:102950000E94D41D80E00E94D41D89830E94A01D86
:1029600089810F90DF91CF911F910F910895CF939F
:10297000FC01C08D80E590E00E942D0C60E270E0CB
:102980008C2F0E945D2262E070E08C2FCADF84FDF4
:1029900013C062E070E08C2FC4DF83FF07C068E1E2
:1029A0008C2FBBDF19D380E090E00CC015D380E5FD
:1029B00090E00E942D0CE7CF60E18C2FAEDF0CD3AE
:1029C00081E090E0CF910895CF93DF93C82FD62F69
:1029D000472F60E170E097DF4D2F61E170E08C2FB1
:1029E000DF91CF9190CF90E0982F882744E050E07E
:1029F000845F9B4F0C94051EBF92CF92DF92EF92A3
:102A0000FF920F931F93CF93DF9300D000D0CDB7E9
:102A1000DEB7FC01208D243009F049C06A017B013A
:102A20008C01B12C63E070E08B2D7BDF811103C042
:102A3000F801B08E06C08831D9F3B394F4E0BF1228
:102A4000F1CFF801808D843091F196E0E5E4F2E079
:102A5000DE01119601900D929A95E1F7F7019381AD
:102A60009F779C8394819D8395819E83B7016E5F40
:102A70007F4FB9DFB601F801808DA6DFF801808DA8
:102A800090E0982F882746E050E0BE016F5F7F4FAF
:102A90008A5F9B4F0E94051EF801128E118E20E85E
:102AA000A60162E0808D0E941E1F81E001C080E0CF
:102AB00026960FB6F894DEBF0FBECDBFDF91CF9143
:102AC0001F910F91FF90EF90DF90CF90BF900895EE
:102AD000FF920F931F93CF93DF93FB01DC01579677
:102AE0001C921E9256975896FC908281811109C0C3
:102AF0008381811106C08481811103C0858188236F
:102B0000A9F04115510591F08A01EF0180E590E0AF
:102B10000E942D0CBE016E5F7F4F8F2D64DFB801C8
:102B20008F2D52DF59D281E090E002C080E090E02A
:102B3000DF91CF911F910F91FF900895FC01848543
:102B4000843011F00C94741E80E008954F925F92CF
:102B50006F927F928F929F92AF92BF92CF92DF92AD
:102B6000EF92FF921F93CF93DF93CDB7DEB72D97F0
:102B70000FB6F894DEBF0FBECDBF7C019DE9A92E34
:102B800098E0B92E10E0C12CD12C28EE422E23E083
:102B9000522E612C712C31EB832E32E0932E1C824D
:102BA0001B824D825E826F8278869A8289821D871F
:102BB000D5012D913D915D01F70184819581281703
:102BC000390799F4CE010196B9DF843159F0CE016D
:102BD0000196B4DF8C3149F4CE0101968DD1892B59
:102BE00091F003C0CC24C394D12C1F5F1430B9F6EC
:102BF000CD2869F4D701ED91FC910480F581E02D99
:102C0000C701199504C0CE010196E7D1EECF2D96EC
:102C10000FB6F894DEBF0FBECDBFDF91CF911F91ED
:102C2000FF90EF90DF90CF90BF90AF909F908F90EC
:102C30007F906F905F904F9008952F923F924F92A8
:102C40005F926F927F928F929F92AF92BF92CF923C
:102C5000DF92EF92FF920F931F93CF93DF93CDB745
:102C6000DEB72E970FB6F894DEBF0FBECDBF7C0146
:102C70006B015A016BDF0DE918E020E0612C712C2B
:102C800088EE282E83E0382E412C512C91EB892E92
:102C900092E0992E1C821B822D823E824F825886A2
:102CA0009A8289822D87F801419151918F01F70114
:102CB000848195814817590739F4CE0101962E87F2
:102CC0003DDF2E858731E9F02F5F243019F7C301EE
:102CD0002E960FB6F894DEBF0FBECDBFDF91CF9119
:102CE0001F910F91FF90EF90DF90CF90BF90AF902A
:102CF0009F908F907F906F905F904F903F902F901C
:102D00000895A501B601CE0101962E87A7D1680EC0
:102D1000791E2E85D9CF8F929F92AF92BF92CF927C
:102D2000DF92EF92FF920F931F93CF93DF93CDB774
:102D3000DEB72D970FB6F894DEBF0FBECDBF7C0176
:102D400000E010E038EE832E33E0932EA12CB12C5E
:102D500041EBC42E42E0D42E1C821B828D829E82C7
:102D6000AF82B886DA82C9820D87CE010196E6DE8F
:102D7000811123C0F7014481558120E061E0802F5B
:102D80000E941E1F80E590E00E942D0C63E070E021
:102D9000802FC7DD833129F462E070E0802F0E942C
:102DA0005D221AD1F70184819581000F111FF8016E
:102DB000E356F74F9183808305C00F5F1F4F0430A8
:102DC000110551F62D960FB6F894DEBF0FBECDBF9C
:102DD000DF91CF911F910F91FF90EF90DF90CF90F7
:102DE000BF90AF909F908F900895CF93DF93FC0199
:102DF00024852430C9F0EC01A1DE843181F08823E0
:102E000071F0883161F08C3161F4E881F9810480DE
:102E1000F581E02DCE01199521E0892B19F420E0F0
:102E200001C021E0822F01C080E0DF91CF910895A1
:102E30000895CF93DF931F92CDB7DEB76983DC018E
:102E4000ED91FC910280F381E02D41E050E0BE0164
:102E50006F5F7F4F19950F90DF91CF910895DC013F
:102E6000ED91FC91048CF58DE02D199591E0892769
:102E70000895862F089581E0862708950F931F9364
:102E8000CF93DF931F92CDB7DEB78C01DC01ED91BC
:102E9000FC910480F581E02D1995892B49F0BE0144
:102EA0006F5F7F4FF8018485A0D7898190E002C0D1
:102EB0008FEF9FEF0F90DF91CF911F910F910895AA
:102EC000FC01848541C7CF93DF931F92CDB7DEB756
:102ED00041E050E0BE016F5F7F4FFC01848534D735
:102EE000181619061CF4898190E002C08FEF9FEF3D
:102EF0000F90DF91CF910895FC018485843009F013
:102F0000CAC680E090E00895CF92DF92EF92FF92E0
:102F10000F931F93CF93DF93CDB7DEB7E1970FB633
:102F2000F894DEBF0FBECDBF7C016A0101EF12E055
:102F30001A8309831B821C821D821E82CE01099680
:102F400068AB79AB5EDC1DA30CA31EA21FA218A662
:102F500019A68091C30A9091C40AA091C50AB091A4
:102F6000C60A8CA79DA7AEA7BFA78B839C83AD8302
:102F7000BE8318861F82AE014C5D5F4F68A979A998
:102F8000CE0101960E94300C81309105B1F4D70139
:102F9000ED91FC910484F585E02D1BA70AA78EA175
:102FA0009FA1A8A5B9A58CA79DA7AEA7BFA7A6015D
:102FB000BE01665D7F4FC7011995E1960FB6F89483
:102FC000DEBF0FBECDBFDF91CF911F910F91FF905C
:102FD000EF90DF90CF9008950895CF92DF92EF9217
:102FE000FF921F93CF93DF93FC011485143071F18E
:102FF000EC0180E590E00E942D0C68E070E0812FEC
:103000000E945D22CFD36B017C01CE0197DD882326
:1030100099F061E070E080E090E08CD3C3D3DC01F4
:10302000CB018C199D09AE09BF09883E9340A105CB
:10303000B10558F38C8548D6EC85F0E0EE0FFF1F04
:10304000E356F74F1182108284E08C87DF91CF9195
:103050001F91FF90EF90DF90CF9008958F929F92F5
:10306000AF92BF92CF92DF92EF92FF920F931F9396
:10307000CF936C015B017A01FC01C485C43041F43B
:1030800081E090E0F6019383828380E090E047C086
:103090008A014130584010F000E018E080E590E0EF
:1030A0000E942D0C8C2F0E942E234C0163E070E0B7
:1030B0008C2F37DC873111F08C3121F4801691068A
:1030C00068F302C000E010E080E590E00E942D0C63
:1030D0009801A50160E070E08C2F0E94CB2260E295
:1030E00070E08C2F0E945D2262E070E08C2F19DC72
:1030F00084FD0EC063E070E08C2F13DC811103C0EF
:103100008C2FE2D5BDCF80E590E00E942D0CECCF56
:1031100060E18C2F02DC012B09F4B2CFC701CF9103
:103120001F910F91FF90EF90DF90CF90BF90AF90E5
:103130009F908F900895CF92DF92FF920F931F93ED
:10314000CF93DF93FC012485243009F069C06A0124
:10315000EB018C01F12C8F2DC7D5811103C0F80133
:10316000F48607C08B7F8831D1F3F394F4E0FF122B
:10317000F2CFF8018485843009F452C02091150201
:10318000309116022F5F3F4F11F420E030EC309366
:10319000160220931502409115025091160220E06C
:1031A00061E04CD6F801F4848A818F3F51F48B8121
:1031B0008F3F91F48C818F3F79F48D818F3F61F443
:1031C0002CC0811109C08B81811106C08C818111B5
:1031D00003C08D81882309F1C114D104F1F080E589
:1031E00090E00E942D0CBE016E5F7F4F8F2DFBDBA8
:1031F000B6018F2DE9DB64E070E08F2D0E945D2227
:10320000C8019CDC873179F061E070E080E090E0FB
:1032100091D2C80193DC8111F3CF84E0F801848757
:1032200080E090E002C081E090E0DF91CF911F91BB
:103230000F91FF90DF90CF900895FC01918D828DCA
:10324000981761F0828DDF01A80FB11D5D968C91FA
:10325000928D9F5F9F73928F90E008958FEF9FEF05
:103260000895FC01918D828D981731F0828DE80FC1
:10327000F11D858D90E008958FEF9FEF0895FC017B
:10328000918D228D892F90E0805C9F4F821B910948
:103290008F739927089584E29AE0F1DF21E0892B6A
:1032A00009F420E0822F0895FC01848DDF01A80F2E
:1032B000B11DA35ABF4F2C91848D90E001968F735E
:1032C0009927848FA689B7892C93A089B1898C917D
:1032D00080648C93938D848D981306C00288F38943
:1032E000E02D80818F7D80830895EF92FF920F9370
:1032F0001F93CF93DF93EC0181E0888F9B8D8C8DA2
:10330000981305C0E889F989808185FD23C0F62ED0
:103310000B8D10E00F5F1F4F0F731127E02E8C8D68
:10332000E8120BC00FB607FCFACFE889F989808153
:1033300085FFF5CFCE01B8DFF2CF8B8DFE01E80F10
:10334000F11DE35AFF4FF0820B8FEA89FB898081E0
:10335000806207C0EE89FF896083E889F9898081EE
:103360008064808381E090E0DF91CF911F910F9185
:10337000FF90EF900895CF93DF93EC01888D882321
:10338000C1F0EA89FB89808185FD05C0A889B989DA
:103390008C9186FD0EC00FB607FCF5CF808185FFAE
:1033A000F2CFA889B9898C9185FFEDCFCE017CDF62
:1033B000E8CFDF91CF91089580E090E0892B19F05C
:1033C0006ADF811125C080E090E0892B41F080E028
:1033D00090E0892B21F00E94000081111CC080E048
:1033E00090E0892B41F080E090E0892B21F00E9451
:1033F0000000811113C080E090E0892BA1F080E0F3
:1034000090E0892B81F00E94000081110AC008958C
:103410000E940000D8CF0E940000E1CF0E9400006F
:10342000EACF0C94000008953FB7F8948091770993
:1034300090917809A0917909B0917A0926B5A89B55
:1034400005C02F3F19F00196A11DB11D3FBFBA2F36
:10345000A92F982F8827820F911DA11DB11DBC0196
:10346000CD0142E0660F771F881F991F4A95D1F75B
:10347000089508958F929F92AF92BF92CF92DF925C
:10348000EF92FF920F931F93CF93DF937C018B01F9
:103490006C0182E0C80ED11C4701E5E08E0E911C44
:1034A000C0E0D0E0F60141916F0150E060E070E0D3
:1034B0002AE0C8010E94EC235C016EE2C8010E9470
:1034C00047248A0D9B1DC80FD91FC814D90451F772
:1034D000F701458150E060E070E02AE0C8010E94F9
:1034E000EC238C0F9D1FDF91CF911F910F91FF90C7
:1034F000EF90DF90CF90BF90AF909F908F90089506
:103500000E94C83C1F920F920FB60F9211240BB667
:103510000F922F933F934F935F936F937F938F936C
:103520009F93AF93BF93EF93FF9384E29AE0BCDE47
:10353000FF91EF91BF91AF919F918F917F916F918B
:103540005F914F913F912F910F900BBE0F900FBE47
:103550000F901F9018951F920F920FB60F92112483
:103560000BB60F922F938F939F93EF93FF93E0915E
:10357000340AF091350A8081E0913A0AF0913B0AD1
:1035800082FD12C0908180913D0A8F5F8F732091E0
:103590003E0A821751F0E0913D0AF0E0EC5DF54FF4
:1035A000958F80933D0A01C08081FF91EF919F919B
:1035B0008F912F910F900BBE0F900FBE0F901F9009
:1035C0001895362F90E0FC01E051FD4E4491FC012E
:1035D000E253FC4E2491FC01E857FC4E9491992350
:1035E00009F46BC0442309F455C050E0FA01319747
:1035F000E231F10508F04EC08827EE58FF4F8F4F9B
:103600000C949E3A809180008F7707C08091800053
:103610008F7D03C080918000877F809380003AC0B7
:1036200084B58F7702C084B58F7D84BD33C080910F
:10363000B0008F7703C08091B0008F7D8093B00081
:1036400029C0809190008F7707C0809190008F7D76
:1036500003C080919000877F809390001BC0809171
:10366000A0008F7707C08091A0008F7D03C080915C
:10367000A000877F8093A0000DC0809120018F77EC
:1036800007C0809120018F7D03C080912001877F3A
:1036900080932001E92FF0E0EE0FFF1FEA52FD4E6C
:1036A000A591B4918FB7F894EC91311103C0209596
:1036B0002E2301C02E2B2C938FBF0895CF93DF9321
:1036C00090E0FC01E253FC4E2491FC01E857FC4ED3
:1036D0008491882361F190E0880F991FFC01EC5AD6
:1036E000FC4EC591D491FC01EA52FD4EA591B491D6
:1036F000611109C09FB7F89488812095822388833F
:10370000EC912E230BC0623061F49FB7F89438819E
:10371000822F809583238883EC912E2B2C939FBF3F
:1037200006C08FB7F894E8812E2B28838FBFDF91D6
:10373000CF9108958F929F92AF92BF92CF92DF92D6
:10374000EF92FF926B017C016FDE4B015C01C114B3
:10375000D104E104F104E9F067DEDC01CB01881952
:103760009909AA09BB09883E9340A105B10578F3E0
:1037700021E0C21AD108E108F10888EE880E83E042
:10378000981EA11CB11CC114D104E104F10421F75D
:10379000DECFFF90EF90DF90CF90BF90AF909F90E3
:1037A0008F9008952FB7F894609173097091740900
:1037B00080917509909176092FBF08951F920F92FD
:1037C0000FB60F9211242F933F938F939F93AF9334
:1037D000BF938091730990917409A0917509B0917C
:1037E00076093091720923E0230F2D3720F40196DA
:1037F000A11DB11D05C026E8230F0296A11DB11D14
:10380000209372098093730990937409A0937509AA
:10381000B09376098091770990917809A091790900
:10382000B0917A090196A11DB11D809377099093FB
:103830007809A0937909B0937A09BF91AF919F91CC
:103840008F913F912F910F900FBE0F901F90189561
:10385000CF92DF92EF92FF920F931F93A3DFC0905E
:103860006A09D0906B09E0906C09F0906D098B01AA
:103870009C010C191D092E093F0980916E09909138
:103880006F09A0917009B0917109083E134021059C
:103890003105D0F00196A11DB11D80936E09909362
:1038A0006F09A0937009B0937109B701A60148513F
:1038B0005C4F6F4F7F4F40936A0950936B09609341
:1038C0006C0970936D09CACF4091660950916709E0
:1038D000609168097091690984179507A607B70771
:1038E00008F455C0E0916409F0916509309709F436
:1038F0004EC01995611571058105910531F16093EF
:103900006E0970936F098093700990937109DC01BF
:10391000CB01845D9E4FAF4FBF4F8093660990935C
:103920006709A0936809B093690982E090E09093D9
:1039300063098093620936DF60936A0970936B09AB
:1039400080936C0990936D0922C080916E099091CB
:103950006F09A0917009B0917109845D9E4FAF4FBE
:10396000BF4F8093660990936709A0936809B0934D
:10397000690981E090E02091620930916309232B6D
:1039800011F480E090E09093630980936209609164
:103990006E0970916F0980917009909171091F9162
:1039A0000F91FF90EF90DF90CF900895FC019081F0
:1039B0000180F281E02DF8948181892B818322811D
:1039C000892F809528232283A7E0B0E01197F1F793
:1039D000218182238183A3E2B0E01197F1F78081F6
:1039E0007894EFECF0E03197F1F7982381E009F457
:1039F00080E00895FC0190810180F281E02D892F03
:103A0000809560FF12C0F894228182238283818195
:103A1000892B8183A3E2B0E01197F1F78281982B83
:103A20009283789487ED90E011C0F89422818223EC
:103A300082838181892B8183AFEFB0E01197F1F709
:103A40008281982B928378948FE090E00197F1F730
:103A50000895CF92DF92EF92FF920F931F93CF932F
:103A6000DF931F92CDB7DEB76C01E62E08E010E0C1
:103A7000FF24F39461E08F2D8E2109F460E0C601EC
:103A80004983B8DFFF0C0150110949810115110567
:103A900089F7411115C0F894D6011196ED91FC916A
:103AA000129791818C918095892381831196ED9154
:103AB000FC91129792818C918095892382837894CE
:103AC0000F90DF91CF911F910F91FF90EF90DF90BA
:103AD000CF900895FC0190810180F281E02DF8944F
:103AE0008181292F20958223818378948DE743E07B
:103AF00050E0815021F1DA011197F1F7308139233B
:103B0000C1F3F8948281822382838181892B81830E
:103B10007894ABE7B7E01197F1F7F8948181282307
:103B20002183A3E1B1E01197F1F78081982381E02F
:103B300009F080E07894E3E6F6E03197F1F7089534
:103B40002C9A08952C9808951F93CF93DF93182FE4
:103B500066E270E00E949114C82FD0E067E270E046
:103B6000812F0E949114DC2FCC279E01282BC901A4
:103B7000DF91CF911F9108951F93CF93DF93182F5B
:103B800060E270E00E949114C82FD0E061E270E022
:103B9000812F0E949114DC2FCC279E01282BC90174
:103BA000DF91CF911F9108958EBD00000DB407FEE7
:103BB000FDCF8EB50895CF92DF92EF92FF920F93D3
:103BC0001F93CF93DF93EC017A018B016C01C40E3C
:103BD000D51ECC15DD0579F0B5DF8FE0E5DF8D2F43
:103BE000E3DF8C2FE1DF219680E0DEDFF8018193B7
:103BF0008F01A6DFEECFC701DF91CF911F910F910B
:103C0000FF90EF90DF90CF900895CF92DF92EF92E8
:103C1000FF920F931F93CF93DF93EC017A018B01F7
:103C20006C01C40ED51ECC15DD0571F08BDF80EF65
:103C3000BBDF8D2FB9DF8C2FB7DF2196F801819183
:103C40008F01B2DF7DDFEFCFC701DF91CF911F91F1
:103C50000F91FF90EF90DF90CF9008951F93CF9337
:103C6000DF931F921F92CDB7DEB7182F6A83998317
:103C700069DF80EF99DF9981892F96DF812F94DFAB
:103C80006A81862F91DF5CDF81E00F900F90DF91DA
:103C9000CF911F9108951F93CF93DF931F921F928F
:103CA000CDB7DEB7182F80E590E00E942D0C812F54
:103CB00058D489839A8390D989819A810F900F90E3
:103CC000DF91CF911F910895CF93C82F80E590E0A9
:103CD0000E942D0C60E170E08C2FEFD36FEF8C2FE2
:103CE0000E948D14CF9178C91F93CF93DF931F92B9
:103CF000CDB7DEB7182F80E590E00E942D0C63E071
:103D000070E0812F0E949114898366D989810F9078
:103D1000DF91CF911F9108951F93CF93DF93182FB9
:103D200068E270E00E949114C82FD0E069E270E070
:103D3000812F0E949114DC2FCC279E01282BC901D2
:103D4000DF91CF911F910895CF92DF92EF92FF9272
:103D50001F93CF93DF93182F6B017A0180E590E0DA
:103D60000E942D0C812FFDD3EC01009799F463E0A4
:103D700070E0812F0E949114843169F1882359F1F8
:103D8000C1E0D0E08C3111F4C0E0D0E0D195C19514
:103D9000D10921C0E816F9060CF4E7011C161D062E
:103DA000D4F4812FB9DF7C019E01A601BC01812FD3
:103DB00094D3EC0EFD1E4F2D68E270E0812F0E941F
:103DC00083144E2D69E270E0812F0E94831460E419
:103DD00070E0812F72D300D9CE01DF91CF911F9176
:103DE000FF90EF90DF90CF9008950F931F93CF93A4
:103DF000C82F8B0180E590E00E942D0C8C2F8CDF6A
:103E000021E030E0A801BC018C2F67D3E5D881E028
:103E100090E0CF911F910F910895CF93DF93C82F1A
:103E2000D62F472F64E070E00E9483144D2F65E089
:103E300070E08C2FDF91CF910C948314FF920F933D
:103E40001F93CF93DF931F921F92CDB7DEB7F82E4B
:103E50008A012A83698338DF80E590E00E942D0C77
:103E60002A816981462F422B60E070E08F2D0E94ED
:103E700083140115110511F0B8010AC060917B0986
:103E800070917C096F5F7F4F70937C0960937B0911
:103E90008F2DC3DF61E070E08F2D0FD39DD881E0BF
:103EA0000F900F90DF91CF911F910F91FF90089588
:103EB0000F931F93CF93DF93EC0188819981009733
:103EC00029F02A813B812617370788F48B016F5F21
:103ED0007F4F0E94E43B009761F0998388831B83A6
:103EE0000A832C813D81232B11F4FC01108281E097
:103EF00001C080E0DF91CF911F910F9108950F9342
:103F00001F93CF93DF93EC014DDC688779878A8715
:103F10009B87E881F9810084F185E02DCE01199518
:103F200097FF16C03FDC088519852A853B85DC0193
:103F3000CB01801B910BA20BB30B0C811D812E8139
:103F40003F8180179107A207B30718F38FEF9FEF08
:103F5000DF91CF911F910F910895CF92DF92EF9251
:103F6000FF920F931F93CF93DF93CDB7DEB7C25469
:103F7000D1090FB6F894DEBF0FBECDBFFC01828120
:103F80009381A481B58123968CAF9DAFAEAFBFAFB7
:103F9000239721E023962FAF239723964CAD5DAD59
:103FA0006EAD7FAD23974BAB5CAB6DAB7EAB89AF9A
:103FB0009AAFABAFBCAF8DA79EA7AFA7B8AB28ABEE
:103FC0004DA55EA56FA578A94FA358A769A77AA7A5
:103FD0002EAB4BA95CA96DA97EA949A35AA36BA3DB
:103FE0007CA38B8F9C8FAD8FBE8F41EF52E05C8B9B
:103FF0004B8B3FEF3D8B3E8B3F8B188E5E874D8703
:104000002AA7CFA0D8A4E9A4FAA4CF86D88AE98A9F
:10401000FA8A2CA309A11AA12BA13CA109871A870E
:104020002B873C875A8349838B839C83AD83BE83D4
:104030006CE271E080E090E07DDB1FB7F894809146
:104040007D09811123C0EDEBF3E18491E3E0F4E11C
:104050009491E82FF0E0EE0FFF1FEC5AFC4EA59173
:10406000B491EC91E92319F461E085E3AADA61E007
:1040700085E324DB8CB580618CBD8CB580648CBD00
:1040800061E084E31BDB61E083E318DB80917D0961
:104090008F5F80937D091FBF249A80E590E00E9486
:1040A0002D0C60E880E090E0D9DD65E58BE190E0E3
:1040B000D5DD65E58AE190E0D1DD0E94EC1780E076
:1040C00090E49093150A8093140A80E090E6909310
:1040D0001D0A80931C0A80E098E49093170A80934D
:1040E000160A80E098E690931F0A80931E0A80E0EB
:1040F00090E59093190A8093180A80E090E79093D6
:10410000210A8093200A80E098E590931B0A80930F
:104110001A0A80E098E79093230A8093220A80E5A8
:1041200090E00E942D0C46E050E067E172E089E0EB
:1041300090E06BDD44E050E0BE016D5F7F4F8FE0AB
:1041400090E063DD44E050E0BE01615F7F4F81E0BD
:1041500090E05BDD44E050E0BE016B5E7F4F85E0A8
:1041600090E053DD0E94EC1781E08C8789859A8569
:10417000AB85BC858093C30A9093C40AA093C50AFB
:10418000B093C60ACE5BDF4F0FB6F894DEBF0FBE0A
:10419000CDBFDF91CF911F910F91FF90EF90DF90F6
:1041A000CF900895AF92BF92CF92DF92EF92FF929D
:1041B0001F93CF93DF9300D01F92CDB7DEB75C0182
:1041C000C5019DDEFC0197FD0FC08D32910581F088
:1041D000C0970A9768F0D501ED91FC910680F781B0
:1041E000E02DC5011995ECCF60E070E0CB0149C02E
:1041F00020E030E0A90110E0E130F105E9F0ED3216
:10420000F105C9F0CF01C0970A97B0F4AAE0B0E079
:104210000E9482456F01FF0FEE08FF08DC01CB0111
:104220008C0D9D1DAE1DBF1D9C01AD01205331099C
:104230004109510901C011E0D501ED91FC910680C1
:10424000F781E02DC50129833A834B835C8319955F
:10425000C50155DEFC01C09729813A814B815C8103
:104260000A9750F2E130F10539F2112341F0662747
:104270007727CB01621B730B840B950B02C0CA011D
:10428000B9010F900F900F900F90DF91CF911F9178
:10429000FF90EF90DF90CF90BF90AF900895EF9296
:1042A000FF920F931F93CF93DF936115710511F464
:1042B00080E022C0FB0101900020E9F73197E61B66
:1042C000F70BDC0114960D911C911597309799F01E
:1042D0007B01EC010E0F1F1FB801EADD882341F3BB
:1042E000288139818C819D81B701820F931F0E94A3
:1042F000E63C1D830C8381E0DF91CF911F910F91EC
:10430000FF90EF900895EF92FF920F931F93CF933A
:10431000DF93EC017B018A01BA01CADD2881398172
:1043200081110DC02115310519F0C9010E944B40C2
:10433000198218821D821C821B821A8206C01D836C
:104340000C83B701C9010E94E63CCE01DF91CF91F9
:104350001F910F91FF90EF900895FC011182108240
:1043600013821282158214826115710549F0FB01D6
:1043700001900020E9F73197AF01461B570BC3CFDF
:1043800008954F925F926F927F928F929F92AF9219
:10439000BF92CF92DF92EF92FF920F931F93CF9332
:1043A000DF938C01EB0186E0849F4001859F900C98
:1043B0001124860E971EFB01E815F90508F5828188
:1043C0009381892B19F13696F7CF608171814481F1
:1043D0005581DB01A40FB51F2C91022E000C330B6D
:1043E0008217930709F54F5F5F4F558344832281FE
:1043F00033814217530751F03696E815F90528F333
:10440000C801BCD197FD46C0FE01F7CFEC1BFD0BE8
:10441000F595E7952BEA3AEAE29FC001E39F900DFC
:10442000F29F900D112438C04115510529F3C48025
:10443000D58096012150310935832483DB01A20FF9
:10444000B31FAC910A2E000CBB0B8A179B07F9F423
:1044500021153105C9F05B017A01E21AF30AE60E73
:10446000F71E412C512CD5016D905D01D7017D9037
:104470007D01671006C0BFEF4B1A5B0A4216530658
:1044800090F34216530699F6D582C482B5CF232BFA
:1044900071F6B2CF8FEF9FEFDF91CF911F910F9108
:1044A000FF90EF90DF90CF90BF90AF909F908F9054
:1044B0007F906F905F904F900895CF93C82F462FB5
:1044C00061E070E00E94831461E070E08C2F0E9434
:1044D00091148111F9CFCF910895AF92BF92CF92ED
:1044E000DF92EF92FF920F931F93CF93DF931F9270
:1044F0001F92CDB7DEB77A836983BA01A901E9813A
:10450000FA81F770082F10E0000F111F045E154F9D
:10451000D8018D919C918E0F9F1F2E0F3F1F213030
:10452000384090F07A015B0120E038E06901CE1A52
:10453000DF0AA60140DBA7014C195D09B5016C0D2E
:104540007D1DF801808191810F900F90DF91CF91B7
:104550001F910F91FF90EF90DF90CF90BF90AF90A1
:104560002ACBFF920F931F93CF93DF93F82EC0E0D7
:10457000D0E08F2DE9DA8C01892B19F08F2DE4DA48
:10458000EC01C017D107A9F7CE01DF91CF911F91A0
:104590000F91FF9008959F92AF92BF92CF92DF92BA
:1045A000EF92FF920F931F93CF93DF93982E8B017F
:1045B0005A01690164E270E00E949114E82EF12C26
:1045C00065E270E0892D0E949114FE2CEE24E82A09
:1045D000E701C00FD11F9E013770E92CF12CC701F4
:1045E000880F991FAC014C5E554F7A01FA0180810A
:1045F0009181820F931FA9014C0D5D1D41305840E0
:1046000088F000E018E0021B130BA801B501FDDAE9
:10461000A601401B510BB501600F711FF70180818E
:10462000918102C0A601B501F0DACC0DDD1D4D2F40
:1046300064E270E0892D0E9483144C2F65E270E0E3
:10464000892DDF91CF911F910F91FF90EF90DF9017
:10465000CF90BF90AF909F900C948314FF920F93D4
:104660001F93CF93DF93F82EC0E0D0E08F2D84DA34
:104670008C01892B19F08F2D7FDAEC01C017D1073F
:10468000A9F7CE01DF91CF911F910F91FF9008956F
:10469000CF93DF93242FAB01BC0184E29AE0FED0DC
:1046A000EC0184E29AE0E0D08C0F9D1FDF91CF9166
:1046B0000895CF93DF93AC01990F660B770B2AE037
:1046C00030E084E29AE0C8D1EC0184E29AE0CCD0F8
:1046D0008C0F9D1FDF91CF910895CF93DF93AB0196
:1046E000BC012AE084E29AE077D0EC0184E29AE00F
:1046F000BBD08C0F9D1FDF91CF910895CF92DF9299
:10470000EF92FF920F931F93CF93DF936C017A0187
:104710008B01C0E0D0E0CE15DF0589F0D8016D91A6
:104720008D01D601ED91FC910190F081E02DC60143
:104730001995892B11F47E0102C02196ECCFC70197
:10474000DF91CF911F910F91FF90EF90DF90CF906D
:1047500008956115710579F0FB0101900020E9F7DA
:104760003197AF01461B570BDC01ED91FC910280A4
:10477000F381E02D199480E090E008950F931F934A
:10478000CF93DF93EC010ED8688779878A879B8760
:10479000E881F9810680F781E02DCE01199597FF18
:1047A00016C000D8088519852A853B85DC01CB0118
:1047B000801B910BA20BB30B0C811D812E813F81BD
:1047C00080179107A207B30718F38FEF9FEFDF91D0
:1047D000CF911F910F9108954F925F926F927F92A8
:1047E000EF92FF920F931F93CF93DF93CDB7DEB776
:1047F000A1970FB6F894DEBF0FBECDBF7C01FA01C2
:10480000CB0119A2223008F42AE08E010F5D1F4F60
:10481000422E512C612C712CBF01A30192010E94E8
:104820004445F901CA01015011096A3014F4605D70
:1048300001C0695CD8016C93232B242B252B61F7D5
:10484000B801C70186DFA1960FB6F894DEBF0FBE90
:10485000CDBFDF91CF911F910F91FF90EF907F908F
:104860006F905F904F90089564E878E072CF0F9357
:104870001F93CF93DF93EC016CDF8C01CE01F4DF4B
:10488000800F911FDF91CF911F910F910895DC014F
:10489000ED91FC910190F081E02D19944F925F927F
:1048A0006F927F928F929F92AF92BF92CF92DF9240
:1048B000EF92FF92CF93DF93EC016A017B01B22E5E
:1048C0009A01AB01C701B6010E94DF3B882319F0B2
:1048D00067E878E027C026013701E89477F82FEFE2
:1048E0003FEF4FE75FE7C301B2010E94DF3B811159
:1048F0000DC02FEF3FEF4FE75FE7C301B2010E940A
:10490000064418161CF46BE878E00CC02FEF3FEF5C
:104910004FE75FE4C701B6010E94DA3B181694F432
:104920006FE878E0CE01DF91CF91FF90EF90DF90BC
:10493000CF90BF90AF909F908F907F906F905F903F
:104940004F9007CF2FEF3FEF4FE75FECC701B60166
:104950000E94064487FDE4CF20E030E0A901C701B2
:10496000B6010E94064487FF09C06DE2CE018FDFC9
:104970004C01F7FAF094F7F8F09402C0812C912CD6
:10498000A12C60E070E080E09FE3AB1441F020E0F8
:1049900030E040E251E40E94343BA394F6CF9B0107
:1049A000AC01C701B6010E94C93A2B013C010E942B
:1049B000AB3B6B017C010E940A449B01AC01C3012B
:1049C000B2010E94C83A2B013C012AE0B701A601BE
:1049D000CE0102DF7C01E80CF91CBB2031F06BE357
:1049E00078E0CE01B6DEE80EF91EDB2CDD2021F1E9
:1049F00020E030E040E251E4C301B2010E946B4488
:104A00002B013C010E94AB3B4B01A12CB12C2AE0B5
:104A1000B501A401CE01E0DEE80EF91EC501B40126
:104A20000E940A449B01AC01C301B2010E94C83A32
:104A30002B013C01DA94DACFC701DF91CF91FF90CF
:104A4000EF90DF90CF90BF90AF909F908F907F902E
:104A50006F905F904F900895CF92DF92EF92FF9208
:104A60000F931F93CF93DF93EC016A017B01211514
:104A7000310579F4E881F9810190F081E02D642F0E
:104A8000DF91CF911F910F91FF90EF90DF90CF902A
:104A900019942A303105D9F477FF18C06DE2F7DE9A
:104AA0008C0144275527BA014C195D096E097F090D
:104AB0002AE0CE0191DE800F911FDF91CF911F91EF
:104AC0000F91FF90EF90DF90CF9008952AE0B7010B
:104AD000A601CE01DF91CF911F910F91FF90EF9032
:104AE000DF90CF9079CE35CEEF92FF920F931F9348
:104AF000CF93DF938C017B01C0E0D0E0F701EC0F96
:104B0000FD1F6491662361F0D801ED91FC91019045
:104B1000F081E02DC8011995892B11F02196EECF77
:104B2000CE01DF91CF911F910F91FF90EF900895EB
:104B30000F931F93CF93DF93EC01D6DF8C01CE014F
:104B400093DE800F911FDF91CF911F910F910895F8
:104B5000CF93DF93CDB7DEB7C05DD1090FB6F89420
:104B6000DEBF0FBECDBF789484B5826084BD84B5AE
:104B7000816084BD85B5826085BD85B5816085BD58
:104B800080916E00816080936E0010928100809110
:104B90008100826080938100809181008160809398
:104BA0008100809180008160809380008091B100BD
:104BB00084608093B1008091B00081608093B000E8
:104BC000809191008260809391008091910081603A
:104BD00080939100809190008160809390008091FB
:104BE000A10082608093A1008091A10081608093E8
:104BF000A1008091A00081608093A000809121019C
:104C00008260809321018091210181608093210144
:104C10008091200181608093200180917A008460DE
:104C200080937A0080917A00826080937A008091EC
:104C30007A00816080937A0080917A008068809306
:104C40007A001092C100E091340AF091350A82E0B6
:104C50008083E091300AF091310A1082E091320AAB
:104C6000F091330A8FEC808310923C0AE091380A6D
:104C7000F091390A86E08083E091360AF091370A94
:104C8000808180618083E091360AF091370A8081CB
:104C900088608083E091360AF091370A80818068CD
:104CA0008083E091360AF091370A80818F7D80837E
:104CB00064EF71E080E090E00E949A1B66E271E090
:104CC00084E29AE035DF1E0129E9220E311C69EFEA
:104CD00072E0C10142DB6EE073E0C101E0DAD101B4
:104CE00014964D915C9115976D917C9184E29AE0B8
:104CF00005DD84E29AE0B8DD61E082E00E945E1B9F
:104D000080E00E940E120E94281C60930609709396
:104D1000070980930809909309090FB6F894A8959C
:104D200080916000886180936000109260000FBEE7
:104D300099E288E10FB6F894A895809360000FBEC1
:104D40009093600080E090E00E94890E893909F01C
:104D50006FC081E090E00E94890E8093170282E08C
:104D600090E00E94890E8093180283E090E00E94F8
:104D7000890E8093190284E090E00E94890E80934E
:104D80001A0285E090E00E94890E80931B0286E063
:104D900090E00E94890E80931C0287E090E00E94C0
:104DA000890E90E090930702809306020AEA18E0C9
:104DB00088E090E07C01BFEFEB1AFB0A0E94890EAD
:104DC000F80181938F01C7018632910599F786E238
:104DD00090E00E94890E182F87E290E00E94890ED1
:104DE000212F30E0322F2227282B309301022093ED
:104DF000000288E290E00E94890E8093020289E21C
:104E000090E00E94890E809303028AE290E00E9463
:104E1000890E809304028BE290E00E94890E8093B9
:104E200005028CE290E00E94890E8093A90802C0DE
:104E30000E94AE1160E271E084E29AE079DE809136
:104E40001C021F928F9380911B021F928F9380915F
:104E50001A021F928F93809119021F928F93809153
:104E600018021F928F93809117021F928F9383E1F4
:104E700093E09F938F939E012F5F3F4F79013F9364
:104E80002F930E94ED3CB70184E29AE02CDE8E0164
:104E900009591F4F81EF92E0D8018D939C93809127
:104EA000020290910302A0910402B0910502F80160
:104EB00082839383A483B583C8014FD8809107026E
:104EC0008F93809106028F93809105021F928F939A
:104ED000809104021F928F93809103021F928F93FF
:104EE000809102021F928F9382E393E09F938F93AE
:104EF000FF92EF920E94ED3CB70184E29AE0F3DD6D
:104F000080910602909107021092F10A1092F00A25
:104F10009093F30A8093F20A8EEE9AE00E948B1629
:104F200081E08093940881E090E090931E0280934A
:104F30001D0268E071E084E29AE0D6DD0E949111E2
:104F4000B8DBD1018D919C910E944B400FB6F89433
:104F5000DEBF0FBECDBF47019E012A553F4FC8544B
:104F6000DF4F39832883C85BD0402801A901445F03
:104F70005F4FC553DF4F59834883CB5CD04028E057
:104F8000C22EC00EC353DF4FC882CD5CD04039E083
:104F9000D32EDE0CC253DF4FD882CE5CD04099E2D4
:104FA00088E10FB6F894A895809360000FBE9093A7
:104FB00060008091DA089091DB089817C1F01F9289
:104FC0008F9382E493E09F938F939F928F920E949E
:104FD000ED3C0E948B0E8091DA088093DB080F90E5
:104FE0000F900F900F900F900F900C94453480917C
:104FF0001D0290911E022091CF0A3091D00A821793
:105000009307F1F0049791F41F921F9286E493E0C6
:105010009F938F939F928F920E94ED3C0E948B0EE4
:105020000F900F900F900F900F900F9080911D0296
:1050300090911E029093D00A8093CF0A0C9445342D
:105040000E94281C6B017C0180911D0290911E0220
:105050000297029708F057C08091D8089091D9081C
:10506000892B31F180911C0990911D09A0911E0995
:10507000B0911F09A7019601281B390B4A0B5B0B46
:10508000DA01C90189369140A105B10588F060E5D2
:1050900073E084E29AE0EBDB80E00E940E12109253
:1050A000D4081092D5081092D6081092D70823C0C1
:1050B0008091D0089091D108A091D208B091D308E6
:1050C000B701A601481B590B6A0B7B0B809111029B
:1050D00090911202A0911302B091140284179507C7
:1050E000A607B70780F466E673E084E29AE0FBDC8B
:1050F00080E00E940E1281E090E090931E02809367
:105100001D020C9445348091180990911909A091C1
:105110001A09B0911B09B701A601481B590B6A0B6C
:105120007B0B4F3151056105710508F4CFC0C0926A
:105130001809D0921909E0921A09F0921B096AEA3B
:1051400072E084E29AE0F4DC67E972E084E29AE0DB
:10515000EFDC0E94281C8091F90A9091FA0A0E94C3
:105160006A1D40E06CEC8091F90A9091FA0A0E9465
:10517000291D4091F40A64E48091F90A9091FA0A99
:105180000E94291D8091F60A8823A9F0E091F50A72
:10519000E950E33040F4F0E0EE0FFF1FE75DFD4F14
:1051A0006081718102C06EEE72E0072E000C880BE8
:1051B000990B0E949A1B0091F90A1091FA0AD801E2
:1051C0001B961C921B971D961C921D971C961C9259
:1051D000F8013B967801B3E0EB0EF11C1292EE154C
:1051E000FF05E1F7C8010E946A1D882309F468C021
:1051F00040E060EFC8010E94291DCC24C394B12C6B
:10520000A12CDD24D394C8010E94D61C682FC801AC
:10521000C153DF4F6883CF5CD0400E94D61CC1537E
:10522000DF4F6881CF5CD040613019F48130D1F418
:1052300037C02B2D30E068131EC0D8011B968C910F
:10524000D81638F4F801E20FF31F83818C2151F452
:1052500002C0D81639F060E0B8E0BD1558F0F8018A
:10526000D48608C0F801EB0DF11D83818C2983835E
:1052700061E009C0AD2CF801E20FF31F93818C2D82
:10528000809589238383C8010E94FA1CD394CC0C97
:1052900019F4B394CC24C394F7E0FB1508F0B3CF12
:1052A00080E4C82ECD1460F4D8011B96AC921B97F5
:1052B000A1100C94493481E01D968C930C944934D0
:1052C000F8011386158614860C946E342091CC0850
:1052D0003091CD084091CE085091CF0860911409CB
:1052E0007091150980911609909117090E94064442
:1052F00090911002882319F0911119C002C09111E8
:1053000084C08091100990911109A0911209B09167
:105310001309A7019601281B390B4A0B5B0BDA0115
:10532000C90189359240A105B10508F46EC066E84F
:1053300078E084E29AE09BDA60E874E084E29AE044
:1053400096DA65E074E084E29AE0CDDB60911409BE
:105350007091150980911609909117094AE050E063
:1053600097D960EF73E084E29AE0BDDB6091CC08EE
:105370007091CD088091CE089091CF084AE050E01E
:1053800087D96CE874E084E29AE0ADDB809110028A
:1053900090E08FD96FE974E084E29AE0A4DBC70162
:1053A000B6019BD96CEA74E084E29AE09CDB6091E0
:1053B00010097091110980911209909113098DD9EA
:1053C0000E948B0E8823A9F081E0809310028091C7
:1053D000CC089091CD08A091CE08B091CF088093D1
:1053E000140990931509A0931609B09317090C940A
:1053F000453410921002C0921009D0921109E09227
:105400001209F09213090C94453480910C09909183
:105410000D09A0910E09B0910F09B701A601481B13
:10542000590B6A0B7B0B453151056105710560F025
:10543000C0920C09D0920D09E0920E09F0920F096A
:105440000E94970E0C9445348EEE9AE00E94A615A9
:105450000DE918E0D12C61EBE62E62E0F62E1C82FD
:105460001B8268EE73E080E090E06D837E838F8323
:105470009887FA82E982DD86D8012D913D918D01D0
:105480008091F20A9091F30A2817390701F5C401B7
:105490000E949E15873111F08C31C9F4C4010E941D
:1054A0007C17892BA1F02B813C818D819E81AF815E
:1054B000B885C984DA84EB84FC84C953DF4FC88281
:1054C000D982EA82FB82C75CD040DD840AC0D394D3
:1054D00024E0D212C4CF88EE93E0A0E0B0E020E058
:1054E00030E03093E40A2093E30A8093E50A909336
:1054F000E60AA093E70AB093E80AC953DF4F488150
:1055000059816A817B81C75CD0404093E90A5093FE
:10551000EA0A6093EB0A7093EC0AD092ED0A54E029
:10552000D51611F40C94313481EE9AE00E94F516F0
:10553000882311F40C94273481EE9AE00E947C17A2
:10554000892B91F38DE0D1011D928A95E9F78CE0CA
:10555000C854DF4FE881F981C85BD04011928A9529
:10556000E9F781017101C12CD12C81EE9AE006D9B5
:1055700097FD0EC08F32910559F0D7018D937D01B3
:10558000BFEFCB1ADB0AECE0CE16D10471F704C0F2
:10559000CD2811F40C942734B10184E29AE067D944
:1055A0008DE0D1011D928A95E9F7E12CF12C81EE75
:1055B0009AE0E4D897FD0DC08032910551F0F801D2
:1055C00081938F01FFEFEF1AFF0A2CE0E216F1043E
:1055D00071F7E114F10411F40C942734C70169D870
:1055E000B10184E29AE043D96FEB74E0C1010E94FB
:1055F00097368F3F3FEF930729F1D101A80FB91FCD
:10560000FE01EA55FF4F9C01C854DF4FC880D98086
:10561000C85BD0402C193D09A9014E0F5F1F4C30CB
:10562000510564F4C553DF4FE880F980CB5CD0406E
:10563000EE15FF0519F04D914193EECFF101E80F02
:10564000F91F108261EC74E0C1010E94DD3C892BDE
:1056500009F0B2C468EF7CE084E29AE045DA0E9487
:10566000911127D861E97CE081EE9AE03DDA6BEA9E
:105670007BE081EE9AE05CDA6CE97BE081EE9AE017
:1056800033DA80911D0290911E02049741F46BE67B
:105690007BE081EE9AE028DA60E07BE007C060ED15
:1056A0007AE081EE9AE020DA64E67AE081EE9AE030
:1056B0001BDA6BE37AE081EE9AE016DA60E37AE0D7
:1056C00081EE9AE011DAE0911D02F0911E02EE0FD8
:1056D000FF1FEB5CFD4F81818F9380818F9386EC60
:1056E00094E09F938F939F928F920E94ED3CB40120
:1056F00081EE9AE0F8D969E17AE081EE9AE0F4D996
:105700000F900F900F900F900F900F908091DA08EC
:10571000882309F44DC163E17AE081EE9AE0E4D98F
:105720000E94281C0091D0081091D1082091D20825
:105730003091D3086B017C01C01AD10AE20AF30A46
:10574000C654DF4FC882D982EA82FB82CA5BD0404E
:10575000C0901102D0901202E0901302F090140257
:10576000C654DF4F288139814A815B81CA5BD040B2
:10577000C21AD30AE40AF50AC701B60120E13EE0E5
:1057800040E050E00E944445122F032F742E652EF6
:10579000A0E1BEE00E948245A7019601261B370BBF
:1057A000480B590BC254DF4F288339834A835B83EC
:1057B000CE5BD040FF92EF92DF92CF928CEE94E0DE
:1057C0009F938F939F928F920E94ED3CB40181EE44
:1057D0009AE089D96F927F920F931F932EEFA22E9A
:1057E00024E0B22EBF92AF929F928F920E94ED3C26
:1057F000B40181EE9AE077D93CE3C32ED12CE12CA1
:10580000F12CC254DF4F688179818A819B81CE5B04
:10581000D040A70196010E944445162F072F782EED
:10582000692E5F934F933F932F93BF92AF929F92B6
:105830008F920E94ED3CB40181EE9AE054D96F92B0
:105840007F920F931F9342E2642E45E0742E7F9265
:105850006F929F928F920E94ED3C0FB6F894DEBF3C
:105860000FBECDBFB40181EE9AE03DD9C654DF4FE3
:10587000688179818A819B81CA5BD04020E13EE0CA
:1058800040E050E00E944445122F032FC254DF4FE6
:105890004883CE5BD040CE53DF4F5883C25CD040AC
:1058A000A0E1BEE00E948245C654DF4F28813981C5
:1058B0004A815B81CA5BD040261B370B480B590BD2
:1058C000CD53DF4F288339834A835B83C35CD04049
:1058D000C354DF4F3881CD5BD0403F93C454DF4F7A
:1058E0004881CC5BD0404F93C554DF4F5881CB5B90
:1058F000D0405F93C654DF4F6881CA5BD0406F933E
:1059000084E095E09F938F939F928F920E94ED3C4D
:10591000B40181EE9AE0E7D8CE53DF4F7881C25CC4
:10592000D0407F93C254DF4F8881CE5BD0408F93AD
:105930000F931F93BF92AF929F928F920E94ED3C64
:10594000B40181EE9AE0CFD8CD53DF4F68817981E1
:105950008A819B81C35CD040A70196010E94444587
:10596000162F072FF82EE92E5F934F933F932F9317
:10597000BF92AF929F928F920E94ED3CB40181EE54
:105980009AE0B1D8EF92FF920F931F937F926F929C
:105990009F928F920E94ED3C0FB6F894DEBF0FBE2F
:1059A000CDBFB40181EE9AE09ED868E07AE002C0F3
:1059B0006AEF79E081EE9AE097D860EE79E081EEC7
:1059C0009AE092D880911D0290911E02823091053A
:1059D00009F066C067ED79E081EE9AE085D86091C4
:1059E0000E0270910F024AE050E081EE9AE00E94B0
:1059F000843A6CEC79E081EE9AE076D860910C0202
:105A000070910D024AE050E081EE9AE00E94843AE3
:105A1000C090C808D090C908E090CA08F090CB08A0
:105A200020E030E048EC52E4C701B6010E946B442C
:105A30000E94A53BCB0164E670E00E948B3A9F93E5
:105A40008F93C701B6010E94A53B7F936F9386E1B8
:105A500095E09F938F939F928F920E94ED3CB401AB
:105A600081EE9AE040D862EC79E081EE9AE03CD891
:105A70008091D8089091D9080FB6F894DEBF0FBE78
:105A8000CDBF009719F46CEB79E004C0019729F4BD
:105A900064EB79E081EE9AE027D869EA79E009C001
:105AA000039751F46AE979E081EE9AE01DD86FE836
:105AB00079E081EE9AE018D86FE779E081EE9AE01C
:105AC00013D880911D0290911E028330910509F038
:105AD00057C0C090C808D090C908E090CA08F0909C
